{
  "_format": "hh-sol-artifact-1",
  "contractName": "RoboPunksNFT",
  "sourceName": "contracts/RoboPunk.sol",
  "abi": [
    {
      "inputs": [],
      "stateMutability": "payable",
      "type": "constructor"
    },
    {
      "anonymous": false,
      "inputs": [
        {
          "indexed": true,
          "internalType": "address",
          "name": "owner",
          "type": "address"
        },
        {
          "indexed": true,
          "internalType": "address",
          "name": "approved",
          "type": "address"
        },
        {
          "indexed": true,
          "internalType": "uint256",
          "name": "tokenId",
          "type": "uint256"
        }
      ],
      "name": "Approval",
      "type": "event"
    },
    {
      "anonymous": false,
      "inputs": [
        {
          "indexed": true,
          "internalType": "address",
          "name": "owner",
          "type": "address"
        },
        {
          "indexed": true,
          "internalType": "address",
          "name": "operator",
          "type": "address"
        },
        {
          "indexed": false,
          "internalType": "bool",
          "name": "approved",
          "type": "bool"
        }
      ],
      "name": "ApprovalForAll",
      "type": "event"
    },
    {
      "anonymous": false,
      "inputs": [
        {
          "indexed": true,
          "internalType": "address",
          "name": "previousOwner",
          "type": "address"
        },
        {
          "indexed": true,
          "internalType": "address",
          "name": "newOwner",
          "type": "address"
        }
      ],
      "name": "OwnershipTransferred",
      "type": "event"
    },
    {
      "anonymous": false,
      "inputs": [
        {
          "indexed": true,
          "internalType": "address",
          "name": "from",
          "type": "address"
        },
        {
          "indexed": true,
          "internalType": "address",
          "name": "to",
          "type": "address"
        },
        {
          "indexed": true,
          "internalType": "uint256",
          "name": "tokenId",
          "type": "uint256"
        }
      ],
      "name": "Transfer",
      "type": "event"
    },
    {
      "inputs": [
        {
          "internalType": "address",
          "name": "to",
          "type": "address"
        },
        {
          "internalType": "uint256",
          "name": "tokenId",
          "type": "uint256"
        }
      ],
      "name": "approve",
      "outputs": [],
      "stateMutability": "nonpayable",
      "type": "function"
    },
    {
      "inputs": [
        {
          "internalType": "address",
          "name": "owner",
          "type": "address"
        }
      ],
      "name": "balanceOf",
      "outputs": [
        {
          "internalType": "uint256",
          "name": "",
          "type": "uint256"
        }
      ],
      "stateMutability": "view",
      "type": "function"
    },
    {
      "inputs": [
        {
          "internalType": "uint256",
          "name": "tokenId",
          "type": "uint256"
        }
      ],
      "name": "getApproved",
      "outputs": [
        {
          "internalType": "address",
          "name": "",
          "type": "address"
        }
      ],
      "stateMutability": "view",
      "type": "function"
    },
    {
      "inputs": [
        {
          "internalType": "address",
          "name": "owner",
          "type": "address"
        },
        {
          "internalType": "address",
          "name": "operator",
          "type": "address"
        }
      ],
      "name": "isApprovedForAll",
      "outputs": [
        {
          "internalType": "bool",
          "name": "",
          "type": "bool"
        }
      ],
      "stateMutability": "view",
      "type": "function"
    },
    {
      "inputs": [],
      "name": "isPublicMintEnabled",
      "outputs": [
        {
          "internalType": "bool",
          "name": "",
          "type": "bool"
        }
      ],
      "stateMutability": "view",
      "type": "function"
    },
    {
      "inputs": [],
      "name": "maxPerWallet",
      "outputs": [
        {
          "internalType": "uint256",
          "name": "",
          "type": "uint256"
        }
      ],
      "stateMutability": "view",
      "type": "function"
    },
    {
      "inputs": [],
      "name": "maxSupply",
      "outputs": [
        {
          "internalType": "uint256",
          "name": "",
          "type": "uint256"
        }
      ],
      "stateMutability": "view",
      "type": "function"
    },
    {
      "inputs": [
        {
          "internalType": "uint256",
          "name": "_quantity",
          "type": "uint256"
        }
      ],
      "name": "mint",
      "outputs": [],
      "stateMutability": "payable",
      "type": "function"
    },
    {
      "inputs": [],
      "name": "mintPrice",
      "outputs": [
        {
          "internalType": "uint256",
          "name": "",
          "type": "uint256"
        }
      ],
      "stateMutability": "view",
      "type": "function"
    },
    {
      "inputs": [],
      "name": "name",
      "outputs": [
        {
          "internalType": "string",
          "name": "",
          "type": "string"
        }
      ],
      "stateMutability": "view",
      "type": "function"
    },
    {
      "inputs": [],
      "name": "owner",
      "outputs": [
        {
          "internalType": "address",
          "name": "",
          "type": "address"
        }
      ],
      "stateMutability": "view",
      "type": "function"
    },
    {
      "inputs": [
        {
          "internalType": "uint256",
          "name": "tokenId",
          "type": "uint256"
        }
      ],
      "name": "ownerOf",
      "outputs": [
        {
          "internalType": "address",
          "name": "",
          "type": "address"
        }
      ],
      "stateMutability": "view",
      "type": "function"
    },
    {
      "inputs": [],
      "name": "renounceOwnership",
      "outputs": [],
      "stateMutability": "nonpayable",
      "type": "function"
    },
    {
      "inputs": [
        {
          "internalType": "address",
          "name": "from",
          "type": "address"
        },
        {
          "internalType": "address",
          "name": "to",
          "type": "address"
        },
        {
          "internalType": "uint256",
          "name": "tokenId",
          "type": "uint256"
        }
      ],
      "name": "safeTransferFrom",
      "outputs": [],
      "stateMutability": "nonpayable",
      "type": "function"
    },
    {
      "inputs": [
        {
          "internalType": "address",
          "name": "from",
          "type": "address"
        },
        {
          "internalType": "address",
          "name": "to",
          "type": "address"
        },
        {
          "internalType": "uint256",
          "name": "tokenId",
          "type": "uint256"
        },
        {
          "internalType": "bytes",
          "name": "_data",
          "type": "bytes"
        }
      ],
      "name": "safeTransferFrom",
      "outputs": [],
      "stateMutability": "nonpayable",
      "type": "function"
    },
    {
      "inputs": [
        {
          "internalType": "address",
          "name": "operator",
          "type": "address"
        },
        {
          "internalType": "bool",
          "name": "approved",
          "type": "bool"
        }
      ],
      "name": "setApprovalForAll",
      "outputs": [],
      "stateMutability": "nonpayable",
      "type": "function"
    },
    {
      "inputs": [
        {
          "internalType": "string",
          "name": "_baseTokenUri",
          "type": "string"
        }
      ],
      "name": "setBaseTokenUri",
      "outputs": [],
      "stateMutability": "nonpayable",
      "type": "function"
    },
    {
      "inputs": [
        {
          "internalType": "bool",
          "name": "_isPublicMintEnabled",
          "type": "bool"
        }
      ],
      "name": "setIsPublicMintEnabled",
      "outputs": [],
      "stateMutability": "nonpayable",
      "type": "function"
    },
    {
      "inputs": [
        {
          "internalType": "bytes4",
          "name": "interfaceId",
          "type": "bytes4"
        }
      ],
      "name": "supportsInterface",
      "outputs": [
        {
          "internalType": "bool",
          "name": "",
          "type": "bool"
        }
      ],
      "stateMutability": "view",
      "type": "function"
    },
    {
      "inputs": [],
      "name": "symbol",
      "outputs": [
        {
          "internalType": "string",
          "name": "",
          "type": "string"
        }
      ],
      "stateMutability": "view",
      "type": "function"
    },
    {
      "inputs": [
        {
          "internalType": "uint256",
          "name": "_tokenId",
          "type": "uint256"
        }
      ],
      "name": "tokenURI",
      "outputs": [
        {
          "internalType": "string",
          "name": "",
          "type": "string"
        }
      ],
      "stateMutability": "view",
      "type": "function"
    },
    {
      "inputs": [],
      "name": "totalSupply",
      "outputs": [
        {
          "internalType": "uint256",
          "name": "",
          "type": "uint256"
        }
      ],
      "stateMutability": "view",
      "type": "function"
    },
    {
      "inputs": [
        {
          "internalType": "address",
          "name": "from",
          "type": "address"
        },
        {
          "internalType": "address",
          "name": "to",
          "type": "address"
        },
        {
          "internalType": "uint256",
          "name": "tokenId",
          "type": "uint256"
        }
      ],
      "name": "transferFrom",
      "outputs": [],
      "stateMutability": "nonpayable",
      "type": "function"
    },
    {
      "inputs": [
        {
          "internalType": "address",
          "name": "newOwner",
          "type": "address"
        }
      ],
      "name": "transferOwnership",
      "outputs": [],
      "stateMutability": "nonpayable",
      "type": "function"
    },
    {
      "inputs": [],
      "name": "withdraw",
      "outputs": [],
      "stateMutability": "nonpayable",
      "type": "function"
    },
    {
      "inputs": [],
      "name": "withdrawWallet",
      "outputs": [
        {
          "internalType": "address payable",
          "name": "",
          "type": "address"
        }
      ],
      "stateMutability": "view",
      "type": "function"
    }
  ],
  "bytecode": "0x60806040526040518060400160405280600981526020017f5a6f6d626f50756e6b00000000000000000000000000000000000000000000008152506040518060400160405280600281526020017f5a50000000000000000000000000000000000000000000000000000000000000815250816000908051906020019062000088929190620001bf565b508060019080519060200190620000a1929190620001bf565b505050620000c4620000b8620000f160201b60201c565b620000f960201b60201c565b66470de4df82000060078190555060006008819055506103e86009819055506003600a81905550620002d4565b600033905090565b6000600660009054906101000a900473ffffffffffffffffffffffffffffffffffffffff16905081600660006101000a81548173ffffffffffffffffffffffffffffffffffffffff021916908373ffffffffffffffffffffffffffffffffffffffff1602179055508173ffffffffffffffffffffffffffffffffffffffff168173ffffffffffffffffffffffffffffffffffffffff167f8be0079c531659141344cd1fd0a4f28419497f9722a3daafe3b4186f6b6457e060405160405180910390a35050565b828054620001cd906200026f565b90600052602060002090601f016020900481019282620001f157600085556200023d565b82601f106200020c57805160ff19168380011785556200023d565b828001600101855582156200023d579182015b828111156200023c5782518255916020019190600101906200021f565b5b5090506200024c919062000250565b5090565b5b808211156200026b57600081600090555060010162000251565b5090565b600060028204905060018216806200028857607f821691505b602082108114156200029f576200029e620002a5565b5b50919050565b7f4e487b7100000000000000000000000000000000000000000000000000000000600052602260045260246000fd5b6136b780620002e46000396000f3fe6080604052600436106101815760003560e01c806370a08231116100d1578063a0712d681161008a578063c87b56dd11610064578063c87b56dd1461053b578063d5abeb0114610578578063e985e9c5146105a3578063f2fde38b146105e057610181565b8063a0712d68146104cd578063a22cb465146104e9578063b88d4fde1461051257610181565b806370a08231146103cf578063715018a61461040c57806385d178f4146104235780638da5cb5b1461044e57806395652cfa1461047957806395d89b41146104a257610181565b80632373ac221161013e57806342842e0e1161011857806342842e0e14610313578063453c23101461033c5780636352211e146103675780636817c76c146103a457610181565b80632373ac22146102aa57806323b872dd146102d35780633ccfd60b146102fc57610181565b80630116bc2d1461018657806301ffc9a7146101b157806306fdde03146101ee578063081812fc14610219578063095ea7b31461025657806318160ddd1461027f575b600080fd5b34801561019257600080fd5b5061019b610609565b6040516101a89190612a0b565b60405180910390f35b3480156101bd57600080fd5b506101d860048036038101906101d39190612425565b61061c565b6040516101e59190612a0b565b60405180910390f35b3480156101fa57600080fd5b506102036106fe565b6040516102109190612a26565b60405180910390f35b34801561022557600080fd5b50610240600480360381019061023b91906124bc565b610790565b60405161024d9190612989565b60405180910390f35b34801561026257600080fd5b5061027d600480360381019061027891906123c0565b610815565b005b34801561028b57600080fd5b5061029461092d565b6040516102a19190612cc8565b60405180910390f35b3480156102b657600080fd5b506102d160048036038101906102cc91906123fc565b610933565b005b3480156102df57600080fd5b506102fa60048036038101906102f591906122ba565b6109cc565b005b34801561030857600080fd5b50610311610a2c565b005b34801561031f57600080fd5b5061033a600480360381019061033591906122ba565b610b79565b005b34801561034857600080fd5b50610351610b99565b60405161035e9190612cc8565b60405180910390f35b34801561037357600080fd5b5061038e600480360381019061038991906124bc565b610b9f565b60405161039b9190612989565b60405180910390f35b3480156103b057600080fd5b506103b9610c51565b6040516103c69190612cc8565b60405180910390f35b3480156103db57600080fd5b506103f660048036038101906103f19190612255565b610c57565b6040516104039190612cc8565b60405180910390f35b34801561041857600080fd5b50610421610d0f565b005b34801561042f57600080fd5b50610438610d97565b60405161044591906129a4565b60405180910390f35b34801561045a57600080fd5b50610463610dbd565b6040516104709190612989565b60405180910390f35b34801561048557600080fd5b506104a0600480360381019061049b9190612477565b610de7565b005b3480156104ae57600080fd5b506104b7610e79565b6040516104c49190612a26565b60405180910390f35b6104e760048036038101906104e291906124bc565b610f0b565b005b3480156104f557600080fd5b50610510600480360381019061050b9190612384565b6110e2565b005b34801561051e57600080fd5b5061053960048036038101906105349190612309565b6110f8565b005b34801561054757600080fd5b50610562600480360381019061055d91906124bc565b61115a565b60405161056f9190612a26565b60405180910390f35b34801561058457600080fd5b5061058d6111d6565b60405161059a9190612cc8565b60405180910390f35b3480156105af57600080fd5b506105ca60048036038101906105c5919061227e565b6111dc565b6040516105d79190612a0b565b60405180910390f35b3480156105ec57600080fd5b5061060760048036038101906106029190612255565b611270565b005b600b60009054906101000a900460ff1681565b60007f80ac58cd000000000000000000000000000000000000000000000000000000007bffffffffffffffffffffffffffffffffffffffffffffffffffffffff1916827bffffffffffffffffffffffffffffffffffffffffffffffffffffffff191614806106e757507f5b5e139f000000000000000000000000000000000000000000000000000000007bffffffffffffffffffffffffffffffffffffffffffffffffffffffff1916827bffffffffffffffffffffffffffffffffffffffffffffffffffffffff1916145b806106f757506106f682611368565b5b9050919050565b60606000805461070d90612f79565b80601f016020809104026020016040519081016040528092919081815260200182805461073990612f79565b80156107865780601f1061075b57610100808354040283529160200191610786565b820191906000526020600020905b81548152906001019060200180831161076957829003601f168201915b5050505050905090565b600061079b826113d2565b6107da576040517f08c379a00000000000000000000000000000000000000000000000000000000081526004016107d190612be8565b60405180910390fd5b6004600083815260200190815260200160002060009054906101000a900473ffffffffffffffffffffffffffffffffffffffff169050919050565b600061082082610b9f565b90508073ffffffffffffffffffffffffffffffffffffffff168373ffffffffffffffffffffffffffffffffffffffff161415610891576040517f08c379a000000000000000000000000000000000000000000000000000000000815260040161088890612c48565b60405180910390fd5b8073ffffffffffffffffffffffffffffffffffffffff166108b061143e565b73ffffffffffffffffffffffffffffffffffffffff1614806108df57506108de816108d961143e565b6111dc565b5b61091e576040517f08c379a000000000000000000000000000000000000000000000000000000000815260040161091590612b68565b60405180910390fd5b6109288383611446565b505050565b60085481565b61093b61143e565b73ffffffffffffffffffffffffffffffffffffffff16610959610dbd565b73ffffffffffffffffffffffffffffffffffffffff16146109af576040517f08c379a00000000000000000000000000000000000000000000000000000000081526004016109a690612c28565b60405180910390fd5b80600b60006101000a81548160ff02191690831515021790555050565b6109dd6109d761143e565b826114ff565b610a1c576040517f08c379a0000000000000000000000000000000000000000000000000000000008152600401610a1390612c68565b60405180910390fd5b610a278383836115dd565b505050565b610a3461143e565b73ffffffffffffffffffffffffffffffffffffffff16610a52610dbd565b73ffffffffffffffffffffffffffffffffffffffff1614610aa8576040517f08c379a0000000000000000000000000000000000000000000000000000000008152600401610a9f90612c28565b60405180910390fd5b6000600d60009054906101000a900473ffffffffffffffffffffffffffffffffffffffff1673ffffffffffffffffffffffffffffffffffffffff1647604051610af090612974565b60006040518083038185875af1925050503d8060008114610b2d576040519150601f19603f3d011682016040523d82523d6000602084013e610b32565b606091505b5050905080610b76576040517f08c379a0000000000000000000000000000000000000000000000000000000008152600401610b6d90612ca8565b60405180910390fd5b50565b610b94838383604051806020016040528060008152506110f8565b505050565b600a5481565b6000806002600084815260200190815260200160002060009054906101000a900473ffffffffffffffffffffffffffffffffffffffff169050600073ffffffffffffffffffffffffffffffffffffffff168173ffffffffffffffffffffffffffffffffffffffff161415610c48576040517f08c379a0000000000000000000000000000000000000000000000000000000008152600401610c3f90612ba8565b60405180910390fd5b80915050919050565b60075481565b60008073ffffffffffffffffffffffffffffffffffffffff168273ffffffffffffffffffffffffffffffffffffffff161415610cc8576040517f08c379a0000000000000000000000000000000000000000000000000000000008152600401610cbf90612b88565b60405180910390fd5b600360008373ffffffffffffffffffffffffffffffffffffffff1673ffffffffffffffffffffffffffffffffffffffff168152602001908152602001600020549050919050565b610d1761143e565b73ffffffffffffffffffffffffffffffffffffffff16610d35610dbd565b73ffffffffffffffffffffffffffffffffffffffff1614610d8b576040517f08c379a0000000000000000000000000000000000000000000000000000000008152600401610d8290612c28565b60405180910390fd5b610d956000611844565b565b600d60009054906101000a900473ffffffffffffffffffffffffffffffffffffffff1681565b6000600660009054906101000a900473ffffffffffffffffffffffffffffffffffffffff16905090565b610def61143e565b73ffffffffffffffffffffffffffffffffffffffff16610e0d610dbd565b73ffffffffffffffffffffffffffffffffffffffff1614610e63576040517f08c379a0000000000000000000000000000000000000000000000000000000008152600401610e5a90612c28565b60405180910390fd5b8181600c9190610e74929190612097565b505050565b606060018054610e8890612f79565b80601f0160208091040260200160405190810160405280929190818152602001828054610eb490612f79565b8015610f015780601f10610ed657610100808354040283529160200191610f01565b820191906000526020600020905b815481529060010190602001808311610ee457829003601f168201915b5050505050905090565b600b60009054906101000a900460ff16610f5a576040517f08c379a0000000000000000000000000000000000000000000000000000000008152600401610f5190612ac8565b60405180910390fd5b60075481610f689190612e23565b3414610fa9576040517f08c379a0000000000000000000000000000000000000000000000000000000008152600401610fa090612ac8565b60405180910390fd5b60095481600854610fba9190612d9c565b1115610ffb576040517f08c379a0000000000000000000000000000000000000000000000000000000008152600401610ff290612c88565b60405180910390fd5b600a5481600e60003373ffffffffffffffffffffffffffffffffffffffff1673ffffffffffffffffffffffffffffffffffffffff168152602001908152602001600020546110499190612d9c565b111561108a576040517f08c379a000000000000000000000000000000000000000000000000000000000815260040161108190612c08565b60405180910390fd5b60005b818110156110de57600060016008546110a69190612d9c565b9050600860008154809291906110bb90612fdc565b91905055506110ca338261190a565b5080806110d690612fdc565b91505061108d565b5050565b6110f46110ed61143e565b8383611928565b5050565b61110961110361143e565b836114ff565b611148576040517f08c379a000000000000000000000000000000000000000000000000000000000815260040161113f90612c68565b60405180910390fd5b61115484848484611a95565b50505050565b6060611165826113d2565b6111a4576040517f08c379a000000000000000000000000000000000000000000000000000000000815260040161119b90612b28565b60405180910390fd5b600c6111af83611af1565b6040516020016111c0929190612945565b6040516020818303038152906040529050919050565b60095481565b6000600560008473ffffffffffffffffffffffffffffffffffffffff1673ffffffffffffffffffffffffffffffffffffffff16815260200190815260200160002060008373ffffffffffffffffffffffffffffffffffffffff1673ffffffffffffffffffffffffffffffffffffffff16815260200190815260200160002060009054906101000a900460ff16905092915050565b61127861143e565b73ffffffffffffffffffffffffffffffffffffffff16611296610dbd565b73ffffffffffffffffffffffffffffffffffffffff16146112ec576040517f08c379a00000000000000000000000000000000000000000000000000000000081526004016112e390612c28565b60405180910390fd5b600073ffffffffffffffffffffffffffffffffffffffff168173ffffffffffffffffffffffffffffffffffffffff16141561135c576040517f08c379a000000000000000000000000000000000000000000000000000000000815260040161135390612a68565b60405180910390fd5b61136581611844565b50565b60007f01ffc9a7000000000000000000000000000000000000000000000000000000007bffffffffffffffffffffffffffffffffffffffffffffffffffffffff1916827bffffffffffffffffffffffffffffffffffffffffffffffffffffffff1916149050919050565b60008073ffffffffffffffffffffffffffffffffffffffff166002600084815260200190815260200160002060009054906101000a900473ffffffffffffffffffffffffffffffffffffffff1673ffffffffffffffffffffffffffffffffffffffff1614159050919050565b600033905090565b816004600083815260200190815260200160002060006101000a81548173ffffffffffffffffffffffffffffffffffffffff021916908373ffffffffffffffffffffffffffffffffffffffff160217905550808273ffffffffffffffffffffffffffffffffffffffff166114b983610b9f565b73ffffffffffffffffffffffffffffffffffffffff167f8c5be1e5ebec7d5bd14f71427d1e84f3dd0314c0f7b2291e5b200ac8c7c3b92560405160405180910390a45050565b600061150a826113d2565b611549576040517f08c379a000000000000000000000000000000000000000000000000000000000815260040161154090612b48565b60405180910390fd5b600061155483610b9f565b90508073ffffffffffffffffffffffffffffffffffffffff168473ffffffffffffffffffffffffffffffffffffffff1614806115c357508373ffffffffffffffffffffffffffffffffffffffff166115ab84610790565b73ffffffffffffffffffffffffffffffffffffffff16145b806115d457506115d381856111dc565b5b91505092915050565b8273ffffffffffffffffffffffffffffffffffffffff166115fd82610b9f565b73ffffffffffffffffffffffffffffffffffffffff1614611653576040517f08c379a000000000000000000000000000000000000000000000000000000000815260040161164a90612a88565b60405180910390fd5b600073ffffffffffffffffffffffffffffffffffffffff168273ffffffffffffffffffffffffffffffffffffffff1614156116c3576040517f08c379a00000000000000000000000000000000000000000000000000000000081526004016116ba90612ae8565b60405180910390fd5b6116ce838383611c9e565b6116d9600082611446565b6001600360008573ffffffffffffffffffffffffffffffffffffffff1673ffffffffffffffffffffffffffffffffffffffff16815260200190815260200160002060008282546117299190612e7d565b925050819055506001600360008473ffffffffffffffffffffffffffffffffffffffff1673ffffffffffffffffffffffffffffffffffffffff16815260200190815260200160002060008282546117809190612d9c565b92505081905550816002600083815260200190815260200160002060006101000a81548173ffffffffffffffffffffffffffffffffffffffff021916908373ffffffffffffffffffffffffffffffffffffffff160217905550808273ffffffffffffffffffffffffffffffffffffffff168473ffffffffffffffffffffffffffffffffffffffff167fddf252ad1be2c89b69c2b068fc378daa952ba7f163c4a11628f55a4df523b3ef60405160405180910390a461183f838383611ca3565b505050565b6000600660009054906101000a900473ffffffffffffffffffffffffffffffffffffffff16905081600660006101000a81548173ffffffffffffffffffffffffffffffffffffffff021916908373ffffffffffffffffffffffffffffffffffffffff1602179055508173ffffffffffffffffffffffffffffffffffffffff168173ffffffffffffffffffffffffffffffffffffffff167f8be0079c531659141344cd1fd0a4f28419497f9722a3daafe3b4186f6b6457e060405160405180910390a35050565b611924828260405180602001604052806000815250611ca8565b5050565b8173ffffffffffffffffffffffffffffffffffffffff168373ffffffffffffffffffffffffffffffffffffffff161415611997576040517f08c379a000000000000000000000000000000000000000000000000000000000815260040161198e90612b08565b60405180910390fd5b80600560008573ffffffffffffffffffffffffffffffffffffffff1673ffffffffffffffffffffffffffffffffffffffff16815260200190815260200160002060008473ffffffffffffffffffffffffffffffffffffffff1673ffffffffffffffffffffffffffffffffffffffff16815260200190815260200160002060006101000a81548160ff0219169083151502179055508173ffffffffffffffffffffffffffffffffffffffff168373ffffffffffffffffffffffffffffffffffffffff167f17307eab39ab6107e8899845ad3d59bd9653f200f220920489ca2b5937696c3183604051611a889190612a0b565b60405180910390a3505050565b611aa08484846115dd565b611aac84848484611d03565b611aeb576040517f08c379a0000000000000000000000000000000000000000000000000000000008152600401611ae290612a48565b60405180910390fd5b50505050565b60606000821415611b39576040518060400160405280600181526020017f30000000000000000000000000000000000000000000000000000000000000008152509050611c99565b600082905060005b60008214611b6b578080611b5490612fdc565b915050600a82611b649190612df2565b9150611b41565b60008167ffffffffffffffff811115611bad577f4e487b7100000000000000000000000000000000000000000000000000000000600052604160045260246000fd5b6040519080825280601f01601f191660200182016040528015611bdf5781602001600182028036833780820191505090505b5090505b60008514611c9257600182611bf89190612e7d565b9150600a85611c079190613025565b6030611c139190612d9c565b60f81b818381518110611c4f577f4e487b7100000000000000000000000000000000000000000000000000000000600052603260045260246000fd5b60200101907effffffffffffffffffffffffffffffffffffffffffffffffffffffffffffff1916908160001a905350600a85611c8b9190612df2565b9450611be3565b8093505050505b919050565b505050565b505050565b611cb28383611e9a565b611cbf6000848484611d03565b611cfe576040517f08c379a0000000000000000000000000000000000000000000000000000000008152600401611cf590612a48565b60405180910390fd5b505050565b6000611d248473ffffffffffffffffffffffffffffffffffffffff16612074565b15611e8d578373ffffffffffffffffffffffffffffffffffffffff1663150b7a02611d4d61143e565b8786866040518563ffffffff1660e01b8152600401611d6f94939291906129bf565b602060405180830381600087803b158015611d8957600080fd5b505af1925050508015611dba57506040513d601f19601f82011682018060405250810190611db7919061244e565b60015b611e3d573d8060008114611dea576040519150601f19603f3d011682016040523d82523d6000602084013e611def565b606091505b50600081511415611e35576040517f08c379a0000000000000000000000000000000000000000000000000000000008152600401611e2c90612a48565b60405180910390fd5b805181602001fd5b63150b7a0260e01b7bffffffffffffffffffffffffffffffffffffffffffffffffffffffff1916817bffffffffffffffffffffffffffffffffffffffffffffffffffffffff191614915050611e92565b600190505b949350505050565b600073ffffffffffffffffffffffffffffffffffffffff168273ffffffffffffffffffffffffffffffffffffffff161415611f0a576040517f08c379a0000000000000000000000000000000000000000000000000000000008152600401611f0190612bc8565b60405180910390fd5b611f13816113d2565b15611f53576040517f08c379a0000000000000000000000000000000000000000000000000000000008152600401611f4a90612aa8565b60405180910390fd5b611f5f60008383611c9e565b6001600360008473ffffffffffffffffffffffffffffffffffffffff1673ffffffffffffffffffffffffffffffffffffffff1681526020019081526020016000206000828254611faf9190612d9c565b92505081905550816002600083815260200190815260200160002060006101000a81548173ffffffffffffffffffffffffffffffffffffffff021916908373ffffffffffffffffffffffffffffffffffffffff160217905550808273ffffffffffffffffffffffffffffffffffffffff16600073ffffffffffffffffffffffffffffffffffffffff167fddf252ad1be2c89b69c2b068fc378daa952ba7f163c4a11628f55a4df523b3ef60405160405180910390a461207060008383611ca3565b5050565b6000808273ffffffffffffffffffffffffffffffffffffffff163b119050919050565b8280546120a390612f79565b90600052602060002090601f0160209004810192826120c5576000855561210c565b82601f106120de57803560ff191683800117855561210c565b8280016001018555821561210c579182015b8281111561210b5782358255916020019190600101906120f0565b5b509050612119919061211d565b5090565b5b8082111561213657600081600090555060010161211e565b5090565b600061214d61214884612d08565b612ce3565b90508281526020810184848401111561216557600080fd5b612170848285612f37565b509392505050565b60008135905061218781613625565b92915050565b60008135905061219c8161363c565b92915050565b6000813590506121b181613653565b92915050565b6000815190506121c681613653565b92915050565b600082601f8301126121dd57600080fd5b81356121ed84826020860161213a565b91505092915050565b60008083601f84011261220857600080fd5b8235905067ffffffffffffffff81111561222157600080fd5b60208301915083600182028301111561223957600080fd5b9250929050565b60008135905061224f8161366a565b92915050565b60006020828403121561226757600080fd5b600061227584828501612178565b91505092915050565b6000806040838503121561229157600080fd5b600061229f85828601612178565b92505060206122b085828601612178565b9150509250929050565b6000806000606084860312156122cf57600080fd5b60006122dd86828701612178565b93505060206122ee86828701612178565b92505060406122ff86828701612240565b9150509250925092565b6000806000806080858703121561231f57600080fd5b600061232d87828801612178565b945050602061233e87828801612178565b935050604061234f87828801612240565b925050606085013567ffffffffffffffff81111561236c57600080fd5b612378878288016121cc565b91505092959194509250565b6000806040838503121561239757600080fd5b60006123a585828601612178565b92505060206123b68582860161218d565b9150509250929050565b600080604083850312156123d357600080fd5b60006123e185828601612178565b92505060206123f285828601612240565b9150509250929050565b60006020828403121561240e57600080fd5b600061241c8482850161218d565b91505092915050565b60006020828403121561243757600080fd5b6000612445848285016121a2565b91505092915050565b60006020828403121561246057600080fd5b600061246e848285016121b7565b91505092915050565b6000806020838503121561248a57600080fd5b600083013567ffffffffffffffff8111156124a457600080fd5b6124b0858286016121f6565b92509250509250929050565b6000602082840312156124ce57600080fd5b60006124dc84828501612240565b91505092915050565b6124ee81612ec3565b82525050565b6124fd81612eb1565b82525050565b61250c81612ed5565b82525050565b600061251d82612d4e565b6125278185612d64565b9350612537818560208601612f46565b61254081613112565b840191505092915050565b600061255682612d59565b6125608185612d80565b9350612570818560208601612f46565b61257981613112565b840191505092915050565b600061258f82612d59565b6125998185612d91565b93506125a9818560208601612f46565b80840191505092915050565b600081546125c281612f79565b6125cc8186612d91565b945060018216600081146125e757600181146125f85761262b565b60ff1983168652818601935061262b565b61260185612d39565b60005b8381101561262357815481890152600182019150602081019050612604565b838801955050505b50505092915050565b6000612641603283612d80565b915061264c82613123565b604082019050919050565b6000612664602683612d80565b915061266f82613172565b604082019050919050565b6000612687602583612d80565b9150612692826131c1565b604082019050919050565b60006126aa601c83612d80565b91506126b582613210565b602082019050919050565b60006126cd601283612d80565b91506126d882613239565b602082019050919050565b60006126f0602483612d80565b91506126fb82613262565b604082019050919050565b6000612713601983612d80565b915061271e826132b1565b602082019050919050565b6000612736601483612d80565b9150612741826132da565b602082019050919050565b6000612759602c83612d80565b915061276482613303565b604082019050919050565b600061277c603883612d80565b915061278782613352565b604082019050919050565b600061279f602a83612d80565b91506127aa826133a1565b604082019050919050565b60006127c2602983612d80565b91506127cd826133f0565b604082019050919050565b60006127e5602083612d80565b91506127f08261343f565b602082019050919050565b6000612808602c83612d80565b915061281382613468565b604082019050919050565b600061282b600583612d91565b9150612836826134b7565b600582019050919050565b600061284e601183612d80565b9150612859826134e0565b602082019050919050565b6000612871602083612d80565b915061287c82613509565b602082019050919050565b6000612894602183612d80565b915061289f82613532565b604082019050919050565b60006128b7600083612d75565b91506128c282613581565b600082019050919050565b60006128da603183612d80565b91506128e582613584565b604082019050919050565b60006128fd600883612d80565b9150612908826135d3565b602082019050919050565b6000612920600f83612d80565b915061292b826135fc565b602082019050919050565b61293f81612f2d565b82525050565b600061295182856125b5565b915061295d8284612584565b91506129688261281e565b91508190509392505050565b600061297f826128aa565b9150819050919050565b600060208201905061299e60008301846124f4565b92915050565b60006020820190506129b960008301846124e5565b92915050565b60006080820190506129d460008301876124f4565b6129e160208301866124f4565b6129ee6040830185612936565b8181036060830152612a008184612512565b905095945050505050565b6000602082019050612a206000830184612503565b92915050565b60006020820190508181036000830152612a40818461254b565b905092915050565b60006020820190508181036000830152612a6181612634565b9050919050565b60006020820190508181036000830152612a8181612657565b9050919050565b60006020820190508181036000830152612aa18161267a565b9050919050565b60006020820190508181036000830152612ac18161269d565b9050919050565b60006020820190508181036000830152612ae1816126c0565b9050919050565b60006020820190508181036000830152612b01816126e3565b9050919050565b60006020820190508181036000830152612b2181612706565b9050919050565b60006020820190508181036000830152612b4181612729565b9050919050565b60006020820190508181036000830152612b618161274c565b9050919050565b60006020820190508181036000830152612b818161276f565b9050919050565b60006020820190508181036000830152612ba181612792565b9050919050565b60006020820190508181036000830152612bc1816127b5565b9050919050565b60006020820190508181036000830152612be1816127d8565b9050919050565b60006020820190508181036000830152612c01816127fb565b9050919050565b60006020820190508181036000830152612c2181612841565b9050919050565b60006020820190508181036000830152612c4181612864565b9050919050565b60006020820190508181036000830152612c6181612887565b9050919050565b60006020820190508181036000830152612c81816128cd565b9050919050565b60006020820190508181036000830152612ca1816128f0565b9050919050565b60006020820190508181036000830152612cc181612913565b9050919050565b6000602082019050612cdd6000830184612936565b92915050565b6000612ced612cfe565b9050612cf98282612fab565b919050565b6000604051905090565b600067ffffffffffffffff821115612d2357612d226130e3565b5b612d2c82613112565b9050602081019050919050565b60008190508160005260206000209050919050565b600081519050919050565b600081519050919050565b600082825260208201905092915050565b600081905092915050565b600082825260208201905092915050565b600081905092915050565b6000612da782612f2d565b9150612db283612f2d565b9250827fffffffffffffffffffffffffffffffffffffffffffffffffffffffffffffffff03821115612de757612de6613056565b5b828201905092915050565b6000612dfd82612f2d565b9150612e0883612f2d565b925082612e1857612e17613085565b5b828204905092915050565b6000612e2e82612f2d565b9150612e3983612f2d565b9250817fffffffffffffffffffffffffffffffffffffffffffffffffffffffffffffffff0483118215151615612e7257612e71613056565b5b828202905092915050565b6000612e8882612f2d565b9150612e9383612f2d565b925082821015612ea657612ea5613056565b5b828203905092915050565b6000612ebc82612f0d565b9050919050565b6000612ece82612f0d565b9050919050565b60008115159050919050565b60007fffffffff0000000000000000000000000000000000000000000000000000000082169050919050565b600073ffffffffffffffffffffffffffffffffffffffff82169050919050565b6000819050919050565b82818337600083830152505050565b60005b83811015612f64578082015181840152602081019050612f49565b83811115612f73576000848401525b50505050565b60006002820490506001821680612f9157607f821691505b60208210811415612fa557612fa46130b4565b5b50919050565b612fb482613112565b810181811067ffffffffffffffff82111715612fd357612fd26130e3565b5b80604052505050565b6000612fe782612f2d565b91507fffffffffffffffffffffffffffffffffffffffffffffffffffffffffffffffff82141561301a57613019613056565b5b600182019050919050565b600061303082612f2d565b915061303b83612f2d565b92508261304b5761304a613085565b5b828206905092915050565b7f4e487b7100000000000000000000000000000000000000000000000000000000600052601160045260246000fd5b7f4e487b7100000000000000000000000000000000000000000000000000000000600052601260045260246000fd5b7f4e487b7100000000000000000000000000000000000000000000000000000000600052602260045260246000fd5b7f4e487b7100000000000000000000000000000000000000000000000000000000600052604160045260246000fd5b6000601f19601f8301169050919050565b7f4552433732313a207472616e7366657220746f206e6f6e20455243373231526560008201527f63656976657220696d706c656d656e7465720000000000000000000000000000602082015250565b7f4f776e61626c653a206e6577206f776e657220697320746865207a65726f206160008201527f6464726573730000000000000000000000000000000000000000000000000000602082015250565b7f4552433732313a207472616e736665722066726f6d20696e636f72726563742060008201527f6f776e6572000000000000000000000000000000000000000000000000000000602082015250565b7f4552433732313a20746f6b656e20616c7265616479206d696e74656400000000600082015250565b7f6d696e74696e67206e6f7420656e61626c650000000000000000000000000000600082015250565b7f4552433732313a207472616e7366657220746f20746865207a65726f2061646460008201527f7265737300000000000000000000000000000000000000000000000000000000602082015250565b7f4552433732313a20617070726f766520746f2063616c6c657200000000000000600082015250565b7f546f6b656e20646f6573206e6f74206578697374000000000000000000000000600082015250565b7f4552433732313a206f70657261746f7220717565727920666f72206e6f6e657860008201527f697374656e7420746f6b656e0000000000000000000000000000000000000000602082015250565b7f4552433732313a20617070726f76652063616c6c6572206973206e6f74206f7760008201527f6e6572206e6f7220617070726f76656420666f7220616c6c0000000000000000602082015250565b7f4552433732313a2062616c616e636520717565727920666f7220746865207a6560008201527f726f206164647265737300000000000000000000000000000000000000000000602082015250565b7f4552433732313a206f776e657220717565727920666f72206e6f6e657869737460008201527f656e7420746f6b656e0000000000000000000000000000000000000000000000602082015250565b7f4552433732313a206d696e7420746f20746865207a65726f2061646472657373600082015250565b7f4552433732313a20617070726f76656420717565727920666f72206e6f6e657860008201527f697374656e7420746f6b656e0000000000000000000000000000000000000000602082015250565b7f2e6a736f6e000000000000000000000000000000000000000000000000000000600082015250565b7f657863656564206d61782077616c6c6574000000000000000000000000000000600082015250565b7f4f776e61626c653a2063616c6c6572206973206e6f7420746865206f776e6572600082015250565b7f4552433732313a20617070726f76616c20746f2063757272656e74206f776e6560008201527f7200000000000000000000000000000000000000000000000000000000000000602082015250565b50565b7f4552433732313a207472616e736665722063616c6c6572206973206e6f74206f60008201527f776e6572206e6f7220617070726f766564000000000000000000000000000000602082015250565b7f536f6c64206f7574000000000000000000000000000000000000000000000000600082015250565b7f7769746864726177206661696c65640000000000000000000000000000000000600082015250565b61362e81612eb1565b811461363957600080fd5b50565b61364581612ed5565b811461365057600080fd5b50565b61365c81612ee1565b811461366757600080fd5b50565b61367381612f2d565b811461367e57600080fd5b5056fea2646970667358221220abbdaabe81115b60cc0d4b0f789a6f3554f4c5ecf60716854b5ed7ca36c2380e64736f6c63430008010033",
  "linkReferences": {},
  "deployedLinkReferences": {}
}