{
  "_format": "hh-sol-artifact-1",
  "contractName": "BlockChainQuiz",
  "sourceName": "contracts/Vote.sol",
  "abi": [
    {
      "inputs": [],
      "stateMutability": "nonpayable",
      "type": "constructor"
    },
    {
      "anonymous": false,
      "inputs": [
        {
          "indexed": true,
          "internalType": "address",
          "name": "owner",
          "type": "address"
        },
        {
          "indexed": true,
          "internalType": "address",
          "name": "spender",
          "type": "address"
        },
        {
          "indexed": false,
          "internalType": "uint256",
          "name": "value",
          "type": "uint256"
        }
      ],
      "name": "Approval",
      "type": "event"
    },
    {
      "anonymous": false,
      "inputs": [
        {
          "indexed": true,
          "internalType": "address",
          "name": "previousOwner",
          "type": "address"
        },
        {
          "indexed": true,
          "internalType": "address",
          "name": "newOwner",
          "type": "address"
        }
      ],
      "name": "OwnershipTransferred",
      "type": "event"
    },
    {
      "anonymous": false,
      "inputs": [
        {
          "indexed": true,
          "internalType": "address",
          "name": "from",
          "type": "address"
        },
        {
          "indexed": true,
          "internalType": "address",
          "name": "to",
          "type": "address"
        },
        {
          "indexed": false,
          "internalType": "uint256",
          "name": "value",
          "type": "uint256"
        }
      ],
      "name": "Transfer",
      "type": "event"
    },
    {
      "anonymous": false,
      "inputs": [
        {
          "indexed": true,
          "internalType": "address",
          "name": "owner",
          "type": "address"
        },
        {
          "indexed": false,
          "internalType": "uint256",
          "name": "amount",
          "type": "uint256"
        },
        {
          "indexed": false,
          "internalType": "string",
          "name": "message",
          "type": "string"
        }
      ],
      "name": "additionalTokenMinted",
      "type": "event"
    },
    {
      "anonymous": false,
      "inputs": [
        {
          "indexed": true,
          "internalType": "address",
          "name": "owner",
          "type": "address"
        },
        {
          "indexed": false,
          "internalType": "uint256",
          "name": "amount",
          "type": "uint256"
        },
        {
          "indexed": false,
          "internalType": "string",
          "name": "message",
          "type": "string"
        }
      ],
      "name": "tokensBurned",
      "type": "event"
    },
    {
      "anonymous": false,
      "inputs": [
        {
          "indexed": true,
          "internalType": "address",
          "name": "owner",
          "type": "address"
        },
        {
          "indexed": false,
          "internalType": "uint256",
          "name": "amount",
          "type": "uint256"
        },
        {
          "indexed": false,
          "internalType": "string",
          "name": "message",
          "type": "string"
        }
      ],
      "name": "tokensMinted",
      "type": "event"
    },
    {
      "inputs": [
        {
          "internalType": "address",
          "name": "owner",
          "type": "address"
        },
        {
          "internalType": "address",
          "name": "spender",
          "type": "address"
        }
      ],
      "name": "allowance",
      "outputs": [
        {
          "internalType": "uint256",
          "name": "",
          "type": "uint256"
        }
      ],
      "stateMutability": "view",
      "type": "function"
    },
    {
      "inputs": [
        {
          "internalType": "address",
          "name": "spender",
          "type": "address"
        },
        {
          "internalType": "uint256",
          "name": "amount",
          "type": "uint256"
        }
      ],
      "name": "approve",
      "outputs": [
        {
          "internalType": "bool",
          "name": "",
          "type": "bool"
        }
      ],
      "stateMutability": "nonpayable",
      "type": "function"
    },
    {
      "inputs": [
        {
          "internalType": "address",
          "name": "account",
          "type": "address"
        }
      ],
      "name": "balanceOf",
      "outputs": [
        {
          "internalType": "uint256",
          "name": "",
          "type": "uint256"
        }
      ],
      "stateMutability": "view",
      "type": "function"
    },
    {
      "inputs": [
        {
          "internalType": "uint256",
          "name": "_amount",
          "type": "uint256"
        }
      ],
      "name": "burn",
      "outputs": [],
      "stateMutability": "nonpayable",
      "type": "function"
    },
    {
      "inputs": [],
      "name": "decimals",
      "outputs": [
        {
          "internalType": "uint8",
          "name": "",
          "type": "uint8"
        }
      ],
      "stateMutability": "view",
      "type": "function"
    },
    {
      "inputs": [
        {
          "internalType": "address",
          "name": "spender",
          "type": "address"
        },
        {
          "internalType": "uint256",
          "name": "subtractedValue",
          "type": "uint256"
        }
      ],
      "name": "decreaseAllowance",
      "outputs": [
        {
          "internalType": "bool",
          "name": "",
          "type": "bool"
        }
      ],
      "stateMutability": "nonpayable",
      "type": "function"
    },
    {
      "inputs": [],
      "name": "depositMoney",
      "outputs": [],
      "stateMutability": "payable",
      "type": "function"
    },
    {
      "inputs": [
        {
          "internalType": "address",
          "name": "spender",
          "type": "address"
        },
        {
          "internalType": "uint256",
          "name": "addedValue",
          "type": "uint256"
        }
      ],
      "name": "increaseAllowance",
      "outputs": [
        {
          "internalType": "bool",
          "name": "",
          "type": "bool"
        }
      ],
      "stateMutability": "nonpayable",
      "type": "function"
    },
    {
      "inputs": [
        {
          "internalType": "address",
          "name": "_to",
          "type": "address"
        },
        {
          "internalType": "uint256",
          "name": "_amount",
          "type": "uint256"
        }
      ],
      "name": "mint",
      "outputs": [],
      "stateMutability": "nonpayable",
      "type": "function"
    },
    {
      "inputs": [],
      "name": "name",
      "outputs": [
        {
          "internalType": "string",
          "name": "",
          "type": "string"
        }
      ],
      "stateMutability": "view",
      "type": "function"
    },
    {
      "inputs": [],
      "name": "owner",
      "outputs": [
        {
          "internalType": "address",
          "name": "",
          "type": "address"
        }
      ],
      "stateMutability": "view",
      "type": "function"
    },
    {
      "inputs": [],
      "name": "renounceOwnership",
      "outputs": [],
      "stateMutability": "nonpayable",
      "type": "function"
    },
    {
      "inputs": [],
      "name": "symbol",
      "outputs": [
        {
          "internalType": "string",
          "name": "",
          "type": "string"
        }
      ],
      "stateMutability": "view",
      "type": "function"
    },
    {
      "inputs": [],
      "name": "totalSupply",
      "outputs": [
        {
          "internalType": "uint256",
          "name": "",
          "type": "uint256"
        }
      ],
      "stateMutability": "view",
      "type": "function"
    },
    {
      "inputs": [
        {
          "internalType": "address",
          "name": "to",
          "type": "address"
        },
        {
          "internalType": "uint256",
          "name": "amount",
          "type": "uint256"
        }
      ],
      "name": "transfer",
      "outputs": [
        {
          "internalType": "bool",
          "name": "",
          "type": "bool"
        }
      ],
      "stateMutability": "nonpayable",
      "type": "function"
    },
    {
      "inputs": [
        {
          "internalType": "address",
          "name": "from",
          "type": "address"
        },
        {
          "internalType": "address",
          "name": "to",
          "type": "address"
        },
        {
          "internalType": "uint256",
          "name": "amount",
          "type": "uint256"
        }
      ],
      "name": "transferFrom",
      "outputs": [
        {
          "internalType": "bool",
          "name": "",
          "type": "bool"
        }
      ],
      "stateMutability": "nonpayable",
      "type": "function"
    },
    {
      "inputs": [
        {
          "internalType": "address",
          "name": "newOwner",
          "type": "address"
        }
      ],
      "name": "transferOwnership",
      "outputs": [],
      "stateMutability": "nonpayable",
      "type": "function"
    },
    {
      "inputs": [
        {
          "internalType": "address",
          "name": "_recipient",
          "type": "address"
        }
      ],
      "name": "withdraw",
      "outputs": [],
      "stateMutability": "payable",
      "type": "function"
    }
  ],
  "bytecode": "0x60806040523480156200001157600080fd5b506040518060400160405280600781526020017f424c4b5155495a000000000000000000000000000000000000000000000000008152506040518060400160405280600381526020017f424c510000000000000000000000000000000000000000000000000000000000815250816003908051906020019062000096929190620003ed565b508060049080519060200190620000af929190620003ed565b505050620000d2620000c66200019360201b60201c565b6200019b60201b60201c565b6200011133620000e76200026160201b60201c565b600a620000f591906200066c565b620f4240620001059190620007a9565b6200026a60201b60201c565b3373ffffffffffffffffffffffffffffffffffffffff167f8d54cf4376f9d10619fbb6aded215dcdffc1b80415e0750f5064018278632d07620001596200026160201b60201c565b600a6200016791906200066c565b612710620001769190620007a9565b60405162000185919062000571565b60405180910390a2620008c2565b600033905090565b6000600560009054906101000a900473ffffffffffffffffffffffffffffffffffffffff16905081600560006101000a81548173ffffffffffffffffffffffffffffffffffffffff021916908373ffffffffffffffffffffffffffffffffffffffff1602179055508173ffffffffffffffffffffffffffffffffffffffff168173ffffffffffffffffffffffffffffffffffffffff167f8be0079c531659141344cd1fd0a4f28419497f9722a3daafe3b4186f6b6457e060405160405180910390a35050565b60006012905090565b600073ffffffffffffffffffffffffffffffffffffffff168273ffffffffffffffffffffffffffffffffffffffff161415620002dd576040517f08c379a0000000000000000000000000000000000000000000000000000000008152600401620002d49062000532565b60405180910390fd5b620002f160008383620003e360201b60201c565b8060026000828254620003059190620005b4565b92505081905550806000808473ffffffffffffffffffffffffffffffffffffffff1673ffffffffffffffffffffffffffffffffffffffff16815260200190815260200160002060008282546200035c9190620005b4565b925050819055508173ffffffffffffffffffffffffffffffffffffffff16600073ffffffffffffffffffffffffffffffffffffffff167fddf252ad1be2c89b69c2b068fc378daa952ba7f163c4a11628f55a4df523b3ef83604051620003c3919062000554565b60405180910390a3620003df60008383620003e860201b60201c565b5050565b505050565b505050565b828054620003fb9062000821565b90600052602060002090601f0160209004810192826200041f57600085556200046b565b82601f106200043a57805160ff19168380011785556200046b565b828001600101855582156200046b579182015b828111156200046a5782518255916020019190600101906200044d565b5b5090506200047a91906200047e565b5090565b5b80821115620004995760008160009055506001016200047f565b5090565b6000620004ac600c83620005a3565b91507f546f6b656e206d696e74656400000000000000000000000000000000000000006000830152602082019050919050565b6000620004ee601f83620005a3565b91507f45524332303a206d696e7420746f20746865207a65726f2061646472657373006000830152602082019050919050565b6200052c816200080a565b82525050565b600060208201905081810360008301526200054d81620004df565b9050919050565b60006020820190506200056b600083018462000521565b92915050565b600060408201905062000588600083018462000521565b81810360208301526200059b816200049d565b905092915050565b600082825260208201905092915050565b6000620005c1826200080a565b9150620005ce836200080a565b9250827fffffffffffffffffffffffffffffffffffffffffffffffffffffffffffffffff0382111562000606576200060562000857565b5b828201905092915050565b6000808291508390505b600185111562000663578086048111156200063b576200063a62000857565b5b60018516156200064b5780820291505b80810290506200065b85620008b5565b94506200061b565b94509492505050565b600062000679826200080a565b9150620006868362000814565b9250620006b57fffffffffffffffffffffffffffffffffffffffffffffffffffffffffffffffff8484620006bd565b905092915050565b600082620006cf5760019050620007a2565b81620006df5760009050620007a2565b8160018114620006f85760028114620007035762000739565b6001915050620007a2565b60ff84111562000718576200071762000857565b5b8360020a91508482111562000732576200073162000857565b5b50620007a2565b5060208310610133831016604e8410600b8410161715620007735782820a9050838111156200076d576200076c62000857565b5b620007a2565b62000782848484600162000611565b925090508184048111156200079c576200079b62000857565b5b81810290505b9392505050565b6000620007b6826200080a565b9150620007c3836200080a565b9250817fffffffffffffffffffffffffffffffffffffffffffffffffffffffffffffffff0483118215151615620007ff57620007fe62000857565b5b828202905092915050565b6000819050919050565b600060ff82169050919050565b600060028204905060018216806200083a57607f821691505b6020821081141562000851576200085062000886565b5b50919050565b7f4e487b7100000000000000000000000000000000000000000000000000000000600052601160045260246000fd5b7f4e487b7100000000000000000000000000000000000000000000000000000000600052602260045260246000fd5b60008160011c9050919050565b61212e80620008d26000396000f3fe6080604052600436106101095760003560e01c806351cff8d91161009557806395d89b411161006457806395d89b411461033d578063a457c2d714610368578063a9059cbb146103a5578063dd62ed3e146103e2578063f2fde38b1461041f57610109565b806351cff8d9146102a257806370a08231146102be578063715018a6146102fb5780638da5cb5b1461031257610109565b806323b872dd116100dc57806323b872dd146101ab578063313ce567146101e8578063395093511461021357806340c10f191461025057806342966c681461027957610109565b806306fdde031461010e578063095ea7b31461013957806316c05aa21461017657806318160ddd14610180575b600080fd5b34801561011a57600080fd5b50610123610448565b6040516101309190611ca7565b60405180910390f35b34801561014557600080fd5b50610160600480360381019061015b9190611681565b6104da565b60405161016d9190611c8c565b60405180910390f35b61017e6104fd565b005b34801561018c57600080fd5b50610195610543565b6040516101a29190611e69565b60405180910390f35b3480156101b757600080fd5b506101d260048036038101906101cd9190611632565b61054d565b6040516101df9190611c8c565b60405180910390f35b3480156101f457600080fd5b506101fd61057c565b60405161020a9190611ee0565b60405180910390f35b34801561021f57600080fd5b5061023a60048036038101906102359190611681565b610585565b6040516102479190611c8c565b60405180910390f35b34801561025c57600080fd5b5061027760048036038101906102729190611681565b61062f565b005b34801561028557600080fd5b506102a0600480360381019061029b91906116bd565b610707565b005b6102bc60048036038101906102b791906115cd565b6107de565b005b3480156102ca57600080fd5b506102e560048036038101906102e091906115cd565b6108a4565b6040516102f29190611e69565b60405180910390f35b34801561030757600080fd5b506103106108ec565b005b34801561031e57600080fd5b50610327610974565b6040516103349190611c71565b60405180910390f35b34801561034957600080fd5b5061035261099e565b60405161035f9190611ca7565b60405180910390f35b34801561037457600080fd5b5061038f600480360381019061038a9190611681565b610a30565b60405161039c9190611c8c565b60405180910390f35b3480156103b157600080fd5b506103cc60048036038101906103c79190611681565b610b1a565b6040516103d99190611c8c565b60405180910390f35b3480156103ee57600080fd5b50610409600480360381019061040491906115f6565b610b3d565b6040516104169190611e69565b60405180910390f35b34801561042b57600080fd5b50610446600480360381019061044191906115cd565b610bc4565b005b60606003805461045790612029565b80601f016020809104026020016040519081016040528092919081815260200182805461048390612029565b80156104d05780601f106104a5576101008083540402835291602001916104d0565b820191906000526020600020905b8154815290600101906020018083116104b357829003601f168201915b5050505050905090565b6000806104e5610cbc565b90506104f2818585610cc4565b600191505092915050565b6000341415610541576040517f08c379a000000000000000000000000000000000000000000000000000000000815260040161053890611d89565b60405180910390fd5b565b6000600254905090565b600080610558610cbc565b9050610565858285610e8f565b610570858585610f1b565b60019150509392505050565b60006012905090565b600080610590610cbc565b9050610624818585600160008673ffffffffffffffffffffffffffffffffffffffff1673ffffffffffffffffffffffffffffffffffffffff16815260200190815260200160002060008973ffffffffffffffffffffffffffffffffffffffff1673ffffffffffffffffffffffffffffffffffffffff1681526020019081526020016000205461061f9190611f17565b610cc4565b600191505092915050565b610637610cbc565b73ffffffffffffffffffffffffffffffffffffffff16610655610974565b73ffffffffffffffffffffffffffffffffffffffff16146106ab576040517f08c379a00000000000000000000000000000000000000000000000000000000081526004016106a290611da9565b60405180910390fd5b6106b5828261119c565b8173ffffffffffffffffffffffffffffffffffffffff167f3b8e0b4f8fa4c38433babb0f7f9a13c0abecda9487c4e4a27309e4f526348334826040516106fb9190611e84565b60405180910390a25050565b61070f610cbc565b73ffffffffffffffffffffffffffffffffffffffff1661072d610974565b73ffffffffffffffffffffffffffffffffffffffff1614610783576040517f08c379a000000000000000000000000000000000000000000000000000000000815260040161077a90611da9565b60405180910390fd5b61078d33826112fc565b3373ffffffffffffffffffffffffffffffffffffffff167fcde716650b13ae41f235d679e62500d67355bc41802e6cfc087b67a7850d975f826040516107d39190611eb2565b60405180910390a250565b6107e6610cbc565b73ffffffffffffffffffffffffffffffffffffffff16610804610974565b73ffffffffffffffffffffffffffffffffffffffff161461085a576040517f08c379a000000000000000000000000000000000000000000000000000000000815260040161085190611da9565b60405180910390fd5b8073ffffffffffffffffffffffffffffffffffffffff166108fc479081150290604051600060405180830381858888f193505050501580156108a0573d6000803e3d6000fd5b5050565b60008060008373ffffffffffffffffffffffffffffffffffffffff1673ffffffffffffffffffffffffffffffffffffffff168152602001908152602001600020549050919050565b6108f4610cbc565b73ffffffffffffffffffffffffffffffffffffffff16610912610974565b73ffffffffffffffffffffffffffffffffffffffff1614610968576040517f08c379a000000000000000000000000000000000000000000000000000000000815260040161095f90611da9565b60405180910390fd5b61097260006114d3565b565b6000600560009054906101000a900473ffffffffffffffffffffffffffffffffffffffff16905090565b6060600480546109ad90612029565b80601f01602080910402602001604051908101604052809291908181526020018280546109d990612029565b8015610a265780601f106109fb57610100808354040283529160200191610a26565b820191906000526020600020905b815481529060010190602001808311610a0957829003601f168201915b5050505050905090565b600080610a3b610cbc565b90506000600160008373ffffffffffffffffffffffffffffffffffffffff1673ffffffffffffffffffffffffffffffffffffffff16815260200190815260200160002060008673ffffffffffffffffffffffffffffffffffffffff1673ffffffffffffffffffffffffffffffffffffffff16815260200190815260200160002054905083811015610b01576040517f08c379a0000000000000000000000000000000000000000000000000000000008152600401610af890611e29565b60405180910390fd5b610b0e8286868403610cc4565b60019250505092915050565b600080610b25610cbc565b9050610b32818585610f1b565b600191505092915050565b6000600160008473ffffffffffffffffffffffffffffffffffffffff1673ffffffffffffffffffffffffffffffffffffffff16815260200190815260200160002060008373ffffffffffffffffffffffffffffffffffffffff1673ffffffffffffffffffffffffffffffffffffffff16815260200190815260200160002054905092915050565b610bcc610cbc565b73ffffffffffffffffffffffffffffffffffffffff16610bea610974565b73ffffffffffffffffffffffffffffffffffffffff1614610c40576040517f08c379a0000000000000000000000000000000000000000000000000000000008152600401610c3790611da9565b60405180910390fd5b600073ffffffffffffffffffffffffffffffffffffffff168173ffffffffffffffffffffffffffffffffffffffff161415610cb0576040517f08c379a0000000000000000000000000000000000000000000000000000000008152600401610ca790611d09565b60405180910390fd5b610cb9816114d3565b50565b600033905090565b600073ffffffffffffffffffffffffffffffffffffffff168373ffffffffffffffffffffffffffffffffffffffff161415610d34576040517f08c379a0000000000000000000000000000000000000000000000000000000008152600401610d2b90611e09565b60405180910390fd5b600073ffffffffffffffffffffffffffffffffffffffff168273ffffffffffffffffffffffffffffffffffffffff161415610da4576040517f08c379a0000000000000000000000000000000000000000000000000000000008152600401610d9b90611d29565b60405180910390fd5b80600160008573ffffffffffffffffffffffffffffffffffffffff1673ffffffffffffffffffffffffffffffffffffffff16815260200190815260200160002060008473ffffffffffffffffffffffffffffffffffffffff1673ffffffffffffffffffffffffffffffffffffffff168152602001908152602001600020819055508173ffffffffffffffffffffffffffffffffffffffff168373ffffffffffffffffffffffffffffffffffffffff167f8c5be1e5ebec7d5bd14f71427d1e84f3dd0314c0f7b2291e5b200ac8c7c3b92583604051610e829190611e69565b60405180910390a3505050565b6000610e9b8484610b3d565b90507fffffffffffffffffffffffffffffffffffffffffffffffffffffffffffffffff8114610f155781811015610f07576040517f08c379a0000000000000000000000000000000000000000000000000000000008152600401610efe90611d49565b60405180910390fd5b610f148484848403610cc4565b5b50505050565b600073ffffffffffffffffffffffffffffffffffffffff168373ffffffffffffffffffffffffffffffffffffffff161415610f8b576040517f08c379a0000000000000000000000000000000000000000000000000000000008152600401610f8290611de9565b60405180910390fd5b600073ffffffffffffffffffffffffffffffffffffffff168273ffffffffffffffffffffffffffffffffffffffff161415610ffb576040517f08c379a0000000000000000000000000000000000000000000000000000000008152600401610ff290611cc9565b60405180910390fd5b611006838383611599565b60008060008573ffffffffffffffffffffffffffffffffffffffff1673ffffffffffffffffffffffffffffffffffffffff1681526020019081526020016000205490508181101561108c576040517f08c379a000000000000000000000000000000000000000000000000000000000815260040161108390611d69565b60405180910390fd5b8181036000808673ffffffffffffffffffffffffffffffffffffffff1673ffffffffffffffffffffffffffffffffffffffff16815260200190815260200160002081905550816000808573ffffffffffffffffffffffffffffffffffffffff1673ffffffffffffffffffffffffffffffffffffffff168152602001908152602001600020600082825461111f9190611f17565b925050819055508273ffffffffffffffffffffffffffffffffffffffff168473ffffffffffffffffffffffffffffffffffffffff167fddf252ad1be2c89b69c2b068fc378daa952ba7f163c4a11628f55a4df523b3ef846040516111839190611e69565b60405180910390a361119684848461159e565b50505050565b600073ffffffffffffffffffffffffffffffffffffffff168273ffffffffffffffffffffffffffffffffffffffff16141561120c576040517f08c379a000000000000000000000000000000000000000000000000000000000815260040161120390611e49565b60405180910390fd5b61121860008383611599565b806002600082825461122a9190611f17565b92505081905550806000808473ffffffffffffffffffffffffffffffffffffffff1673ffffffffffffffffffffffffffffffffffffffff168152602001908152602001600020600082825461127f9190611f17565b925050819055508173ffffffffffffffffffffffffffffffffffffffff16600073ffffffffffffffffffffffffffffffffffffffff167fddf252ad1be2c89b69c2b068fc378daa952ba7f163c4a11628f55a4df523b3ef836040516112e49190611e69565b60405180910390a36112f86000838361159e565b5050565b600073ffffffffffffffffffffffffffffffffffffffff168273ffffffffffffffffffffffffffffffffffffffff16141561136c576040517f08c379a000000000000000000000000000000000000000000000000000000000815260040161136390611dc9565b60405180910390fd5b61137882600083611599565b60008060008473ffffffffffffffffffffffffffffffffffffffff1673ffffffffffffffffffffffffffffffffffffffff168152602001908152602001600020549050818110156113fe576040517f08c379a00000000000000000000000000000000000000000000000000000000081526004016113f590611ce9565b60405180910390fd5b8181036000808573ffffffffffffffffffffffffffffffffffffffff1673ffffffffffffffffffffffffffffffffffffffff1681526020019081526020016000208190555081600260008282546114559190611f6d565b92505081905550600073ffffffffffffffffffffffffffffffffffffffff168373ffffffffffffffffffffffffffffffffffffffff167fddf252ad1be2c89b69c2b068fc378daa952ba7f163c4a11628f55a4df523b3ef846040516114ba9190611e69565b60405180910390a36114ce8360008461159e565b505050565b6000600560009054906101000a900473ffffffffffffffffffffffffffffffffffffffff16905081600560006101000a81548173ffffffffffffffffffffffffffffffffffffffff021916908373ffffffffffffffffffffffffffffffffffffffff1602179055508173ffffffffffffffffffffffffffffffffffffffff168173ffffffffffffffffffffffffffffffffffffffff167f8be0079c531659141344cd1fd0a4f28419497f9722a3daafe3b4186f6b6457e060405160405180910390a35050565b505050565b505050565b6000813590506115b2816120ca565b92915050565b6000813590506115c7816120e1565b92915050565b6000602082840312156115df57600080fd5b60006115ed848285016115a3565b91505092915050565b6000806040838503121561160957600080fd5b6000611617858286016115a3565b9250506020611628858286016115a3565b9150509250929050565b60008060006060848603121561164757600080fd5b6000611655868287016115a3565b9350506020611666868287016115a3565b9250506040611677868287016115b8565b9150509250925092565b6000806040838503121561169457600080fd5b60006116a2858286016115a3565b92505060206116b3858286016115b8565b9150509250929050565b6000602082840312156116cf57600080fd5b60006116dd848285016115b8565b91505092915050565b6116ef81611fa1565b82525050565b6116fe81611fb3565b82525050565b600061170f82611efb565b6117198185611f06565b9350611729818560208601611ff6565b611732816120b9565b840191505092915050565b600061174a602383611f06565b91507f45524332303a207472616e7366657220746f20746865207a65726f206164647260008301527f65737300000000000000000000000000000000000000000000000000000000006020830152604082019050919050565b60006117b0602283611f06565b91507f45524332303a206275726e20616d6f756e7420657863656564732062616c616e60008301527f63650000000000000000000000000000000000000000000000000000000000006020830152604082019050919050565b6000611816602683611f06565b91507f4f776e61626c653a206e6577206f776e657220697320746865207a65726f206160008301527f64647265737300000000000000000000000000000000000000000000000000006020830152604082019050919050565b600061187c602283611f06565b91507f45524332303a20617070726f766520746f20746865207a65726f20616464726560008301527f73730000000000000000000000000000000000000000000000000000000000006020830152604082019050919050565b60006118e2601783611f06565b91507f4164646974696f6e616c20746f6b656e206d696e7465640000000000000000006000830152602082019050919050565b6000611922601d83611f06565b91507f45524332303a20696e73756666696369656e7420616c6c6f77616e63650000006000830152602082019050919050565b6000611962602683611f06565b91507f45524332303a207472616e7366657220616d6f756e742065786365656473206260008301527f616c616e636500000000000000000000000000000000000000000000000000006020830152604082019050919050565b60006119c8600e83611f06565b91507f546f6b656e73206275726e65642e0000000000000000000000000000000000006000830152602082019050919050565b6000611a08601e83611f06565b91507f596f75206e65656420746f206465706f73697420736f6d6520636f696e7300006000830152602082019050919050565b6000611a48602083611f06565b91507f4f776e61626c653a2063616c6c6572206973206e6f7420746865206f776e65726000830152602082019050919050565b6000611a88602183611f06565b91507f45524332303a206275726e2066726f6d20746865207a65726f2061646472657360008301527f73000000000000000000000000000000000000000000000000000000000000006020830152604082019050919050565b6000611aee602583611f06565b91507f45524332303a207472616e736665722066726f6d20746865207a65726f20616460008301527f64726573730000000000000000000000000000000000000000000000000000006020830152604082019050919050565b6000611b54602483611f06565b91507f45524332303a20617070726f76652066726f6d20746865207a65726f2061646460008301527f72657373000000000000000000000000000000000000000000000000000000006020830152604082019050919050565b6000611bba602583611f06565b91507f45524332303a2064656372656173656420616c6c6f77616e63652062656c6f7760008301527f207a65726f0000000000000000000000000000000000000000000000000000006020830152604082019050919050565b6000611c20601f83611f06565b91507f45524332303a206d696e7420746f20746865207a65726f2061646472657373006000830152602082019050919050565b611c5c81611fdf565b82525050565b611c6b81611fe9565b82525050565b6000602082019050611c8660008301846116e6565b92915050565b6000602082019050611ca160008301846116f5565b92915050565b60006020820190508181036000830152611cc18184611704565b905092915050565b60006020820190508181036000830152611ce28161173d565b9050919050565b60006020820190508181036000830152611d02816117a3565b9050919050565b60006020820190508181036000830152611d2281611809565b9050919050565b60006020820190508181036000830152611d428161186f565b9050919050565b60006020820190508181036000830152611d6281611915565b9050919050565b60006020820190508181036000830152611d8281611955565b9050919050565b60006020820190508181036000830152611da2816119fb565b9050919050565b60006020820190508181036000830152611dc281611a3b565b9050919050565b60006020820190508181036000830152611de281611a7b565b9050919050565b60006020820190508181036000830152611e0281611ae1565b9050919050565b60006020820190508181036000830152611e2281611b47565b9050919050565b60006020820190508181036000830152611e4281611bad565b9050919050565b60006020820190508181036000830152611e6281611c13565b9050919050565b6000602082019050611e7e6000830184611c53565b92915050565b6000604082019050611e996000830184611c53565b8181036020830152611eaa816118d5565b905092915050565b6000604082019050611ec76000830184611c53565b8181036020830152611ed8816119bb565b905092915050565b6000602082019050611ef56000830184611c62565b92915050565b600081519050919050565b600082825260208201905092915050565b6000611f2282611fdf565b9150611f2d83611fdf565b9250827fffffffffffffffffffffffffffffffffffffffffffffffffffffffffffffffff03821115611f6257611f6161205b565b5b828201905092915050565b6000611f7882611fdf565b9150611f8383611fdf565b925082821015611f9657611f9561205b565b5b828203905092915050565b6000611fac82611fbf565b9050919050565b60008115159050919050565b600073ffffffffffffffffffffffffffffffffffffffff82169050919050565b6000819050919050565b600060ff82169050919050565b60005b83811015612014578082015181840152602081019050611ff9565b83811115612023576000848401525b50505050565b6000600282049050600182168061204157607f821691505b602082108114156120555761205461208a565b5b50919050565b7f4e487b7100000000000000000000000000000000000000000000000000000000600052601160045260246000fd5b7f4e487b7100000000000000000000000000000000000000000000000000000000600052602260045260246000fd5b6000601f19601f8301169050919050565b6120d381611fa1565b81146120de57600080fd5b50565b6120ea81611fdf565b81146120f557600080fd5b5056fea26469706673582212200245c0b6f6437207249d53feb6821790bd657f92b14652bc1f316a2c6684d8f064736f6c63430008000033",
  "linkReferences": {},
  "deployedLinkReferences": {}
}